{
  "address": "0x7fC436c64DcB02f6e36f6d8822951dC083fC8801",
  "abi": [
    {
      "anonymous": false,
      "inputs": [
        {
          "indexed": false,
          "internalType": "uint8",
          "name": "version",
          "type": "uint8"
        }
      ],
      "name": "Initialized",
      "type": "event"
    },
    {
      "anonymous": false,
      "inputs": [
        {
          "indexed": true,
          "internalType": "address",
          "name": "previousOwner",
          "type": "address"
        },
        {
          "indexed": true,
          "internalType": "address",
          "name": "newOwner",
          "type": "address"
        }
      ],
      "name": "OwnershipTransferred",
      "type": "event"
    },
    {
      "inputs": [],
      "name": "WEEK",
      "outputs": [
        {
          "internalType": "uint256",
          "name": "",
          "type": "uint256"
        }
      ],
      "stateMutability": "view",
      "type": "function"
    },
    {
      "inputs": [
        {
          "internalType": "address",
          "name": "account",
          "type": "address"
        }
      ],
      "name": "claimable",
      "outputs": [
        {
          "internalType": "uint256",
          "name": "",
          "type": "uint256"
        }
      ],
      "stateMutability": "view",
      "type": "function"
    },
    {
      "inputs": [
        {
          "internalType": "address",
          "name": "account",
          "type": "address"
        }
      ],
      "name": "find_timestamp_user_epoch",
      "outputs": [
        {
          "internalType": "uint256",
          "name": "",
          "type": "uint256"
        }
      ],
      "stateMutability": "view",
      "type": "function"
    },
    {
      "inputs": [
        {
          "internalType": "address",
          "name": "_ve",
          "type": "address"
        },
        {
          "internalType": "address",
          "name": "_feeDistributor",
          "type": "address"
        }
      ],
      "name": "initialize",
      "outputs": [],
      "stateMutability": "nonpayable",
      "type": "function"
    },
    {
      "inputs": [],
      "name": "owner",
      "outputs": [
        {
          "internalType": "address",
          "name": "",
          "type": "address"
        }
      ],
      "stateMutability": "view",
      "type": "function"
    },
    {
      "inputs": [],
      "name": "renounceOwnership",
      "outputs": [],
      "stateMutability": "nonpayable",
      "type": "function"
    },
    {
      "inputs": [
        {
          "internalType": "address",
          "name": "_ve",
          "type": "address"
        },
        {
          "internalType": "address",
          "name": "_feeDistributor",
          "type": "address"
        }
      ],
      "name": "setBaseContracts",
      "outputs": [],
      "stateMutability": "nonpayable",
      "type": "function"
    },
    {
      "inputs": [
        {
          "internalType": "address",
          "name": "newOwner",
          "type": "address"
        }
      ],
      "name": "transferOwnership",
      "outputs": [],
      "stateMutability": "nonpayable",
      "type": "function"
    }
  ],
  "transactionHash": "0x9c71a14c3754484a9f73e2519ba09dd943a38cfb2d6b4d7a8eafbd6cfc6e3d52",
  "args": [],
  "numDeployments": 1,
  "solcInputHash": "6d53c96d4ed58d41dc3ad72f3f070f64",
  "bytecode": "0x608060405234801561001057600080fd5b506110fc806100206000396000f3fe608060405234801561001057600080fd5b50600436106100885760003560e01c80638da5cb5b1161005b5780638da5cb5b146100e3578063cd274f65146100fe578063f2fde38b14610111578063f4359ce51461012457600080fd5b8063402914f51461008d578063485cc955146100b357806369acb1e4146100c8578063715018a6146100db575b600080fd5b6100a061009b366004610f44565b61012e565b6040519081526020015b60405180910390f35b6100c66100c1366004610f66565b610860565b005b6100a06100d6366004610f44565b610914565b6100c6610b13565b6033546040516001600160a01b0390911681526020016100aa565b6100c661010c366004610f66565b610b7e565b6100c661011f366004610f44565b610c13565b6100a062093a8081565b60008062093a8080606560009054906101000a90046001600160a01b03166001600160a01b0316637f58e8f86040518163ffffffff1660e01b8152600401602060405180830381865afa158015610189573d6000803e3d6000fd5b505050506040513d601f19601f820116820180604052508101906101ad9190610f99565b6101b79190610fc8565b6101c19190610fea565b6066546040517f010ae7570000000000000000000000000000000000000000000000000000000081526001600160a01b0386811660048301529293506000928392839291169063010ae75790602401602060405180830381865afa15801561022d573d6000803e3d6000fd5b505050506040513d601f19601f820116820180604052508101906102519190610f99565b9050806000036102675750600095945050505050565b6065546040517f2a2a314b0000000000000000000000000000000000000000000000000000000081526001600160a01b0388811660048301526000921690632a2a314b90602401602060405180830381865afa1580156102cb573d6000803e3d6000fd5b505050506040513d601f19601f820116820180604052508101906102ef9190610f99565b9050806000036103095761030287610914565b9350610393565b6065546040517fd5d46e880000000000000000000000000000000000000000000000000000000081526001600160a01b0389811660048301529091169063d5d46e8890602401602060405180830381865afa15801561036c573d6000803e3d6000fd5b505050506040513d601f19601f820116820180604052508101906103909190610f99565b93505b836000036103a057600193505b6066546040516328d09d4760e01b81526001600160a01b0389811660048301526024820187905260009216906328d09d4790604401608060405180830381865afa1580156103f2573d6000803e3d6000fd5b505050506040513d601f19601f820116820180604052508101906104169190611009565b90508160000361045b5762093a8080600162093a80846040015161043a919061107d565b6104449190611095565b61044e9190610fc8565b6104589190610fea565b91505b85821061047057506000979650505050505050565b606560009054906101000a90046001600160a01b03166001600160a01b031663834ee4176040518163ffffffff1660e01b8152600401602060405180830381865afa1580156104c3573d6000803e3d6000fd5b505050506040513d601f19601f820116820180604052508101906104e79190610f99565b82101561056857606560009054906101000a90046001600160a01b03166001600160a01b031663834ee4176040518163ffffffff1660e01b8152600401602060405180830381865afa158015610541573d6000803e3d6000fd5b505050506040513d601f19601f820116820180604052508101906105659190610f99565b91505b6105936040518060800160405280600081526020016000815260200160008152602001600081525090565b60005b6032811015610852578784101561085257826040015184101580156105bb5750848711155b1561069057866105ca816110ac565b845184526020808601519085015260408086015190850152606080860151908501529750508487111561061457600080845260208401819052604084018190526060840152610840565b6066546040516328d09d4760e01b81526001600160a01b038c81166004830152602482018a9052909116906328d09d4790604401608060405180830381865afa158015610665573d6000803e3d6000fd5b505050506040513d601f19601f820116820180604052508101906106899190611009565b9250610840565b60008260400151856106a29190611095565b905060008360200151826106b69190610fea565b845110156106c55760006106e0565b60208401516106d49083610fea565b84516106e09190611095565b9050801580156106ef57508689115b156106fb575050610852565b801561082e576065546040517fd4dafba8000000000000000000000000000000000000000000000000000000008152600481018890526001600160a01b039091169063d4dafba890602401602060405180830381865afa158015610763573d6000803e3d6000fd5b505050506040513d601f19601f820116820180604052508101906107879190610f99565b6065546040517fedf59997000000000000000000000000000000000000000000000000000000008152600481018990526001600160a01b039091169063edf5999790602401602060405180830381865afa1580156107e9573d6000803e3d6000fd5b505050506040513d601f19601f8201168201806040525081019061080d9190610f99565b6108179083610fea565b6108219190610fc8565b61082b908961107d565b97505b61083b62093a808761107d565b955050505b8061084a816110ac565b915050610596565b509398975050505050505050565b600061086c6001610cf5565b90508015610884576000805461ff0019166101001790555b61088c610e4c565b606680546001600160a01b0380861673ffffffffffffffffffffffffffffffffffffffff19928316179092556065805492851692909116919091179055801561090f576000805461ff0019169055604051600181527f7f26b83ff96e1f2b6a682f133852f6798a09c465da95921460cefb38474024989060200160405180910390a15b505050565b6066546040517f010ae7570000000000000000000000000000000000000000000000000000000081526001600160a01b038381166004830152600092839283929091169063010ae75790602401602060405180830381865afa15801561097e573d6000803e3d6000fd5b505050506040513d601f19601f820116820180604052508101906109a29190610f99565b90506000606560009054906101000a90046001600160a01b03166001600160a01b031663834ee4176040518163ffffffff1660e01b8152600401602060405180830381865afa1580156109f9573d6000803e3d6000fd5b505050506040513d601f19601f82011682018060405250810190610a1d9190610f99565b905060005b6080811015610b095782841015610b095760006002610a41858761107d565b610a4c90600261107d565b610a569190610fc8565b6066546040516328d09d4760e01b81526001600160a01b038a8116600483015260248201849052929350600092909116906328d09d4790604401608060405180830381865afa158015610aad573d6000803e3d6000fd5b505050506040513d601f19601f82011682018060405250810190610ad19190611009565b905083816040015111610ae657819550610af4565b610af1600183611095565b94505b50508080610b01906110ac565b915050610a22565b5091949350505050565b6033546001600160a01b03163314610b725760405162461bcd60e51b815260206004820181905260248201527f4f776e61626c653a2063616c6c6572206973206e6f7420746865206f776e657260448201526064015b60405180910390fd5b610b7c6000610ece565b565b6033546001600160a01b03163314610bd85760405162461bcd60e51b815260206004820181905260248201527f4f776e61626c653a2063616c6c6572206973206e6f7420746865206f776e65726044820152606401610b69565b606680546001600160a01b0393841673ffffffffffffffffffffffffffffffffffffffff199182161790915560658054929093169116179055565b6033546001600160a01b03163314610c6d5760405162461bcd60e51b815260206004820181905260248201527f4f776e61626c653a2063616c6c6572206973206e6f7420746865206f776e65726044820152606401610b69565b6001600160a01b038116610ce95760405162461bcd60e51b815260206004820152602660248201527f4f776e61626c653a206e6577206f776e657220697320746865207a65726f206160448201527f64647265737300000000000000000000000000000000000000000000000000006064820152608401610b69565b610cf281610ece565b50565b60008054610100900460ff1615610d92578160ff166001148015610d185750303b155b610d8a5760405162461bcd60e51b815260206004820152602e60248201527f496e697469616c697a61626c653a20636f6e747261637420697320616c72656160448201527f647920696e697469616c697a65640000000000000000000000000000000000006064820152608401610b69565b506000919050565b60005460ff808416911610610e0f5760405162461bcd60e51b815260206004820152602e60248201527f496e697469616c697a61626c653a20636f6e747261637420697320616c72656160448201527f647920696e697469616c697a65640000000000000000000000000000000000006064820152608401610b69565b50600080547fffffffffffffffffffffffffffffffffffffffffffffffffffffffffffffff001660ff92909216919091179055600190565b919050565b600054610100900460ff16610ec95760405162461bcd60e51b815260206004820152602b60248201527f496e697469616c697a61626c653a20636f6e7472616374206973206e6f74206960448201527f6e697469616c697a696e670000000000000000000000000000000000000000006064820152608401610b69565b610b7c335b603380546001600160a01b0383811673ffffffffffffffffffffffffffffffffffffffff19831681179093556040519116919082907f8be0079c531659141344cd1fd0a4f28419497f9722a3daafe3b4186f6b6457e090600090a35050565b80356001600160a01b0381168114610e4757600080fd5b600060208284031215610f5657600080fd5b610f5f82610f2d565b9392505050565b60008060408385031215610f7957600080fd5b610f8283610f2d565b9150610f9060208401610f2d565b90509250929050565b600060208284031215610fab57600080fd5b5051919050565b634e487b7160e01b600052601160045260246000fd5b600082610fe557634e487b7160e01b600052601260045260246000fd5b500490565b600081600019048311821515161561100457611004610fb2565b500290565b60006080828403121561101b57600080fd5b6040516080810181811067ffffffffffffffff8211171561104c57634e487b7160e01b600052604160045260246000fd5b8060405250825181526020830151602082015260408301516040820152606083015160608201528091505092915050565b6000821982111561109057611090610fb2565b500190565b6000828210156110a7576110a7610fb2565b500390565b600060001982036110bf576110bf610fb2565b506001019056fea2646970667358221220fbc58cb46fb72c021c42fbabb804467f28251ef1a65945e1972e6a086c03723664736f6c634300080d0033",
  "devdoc": {
    "kind": "dev",
    "methods": {
      "find_timestamp_user_epoch(address)": {
        "details": "Finds a epoch value for `user` by doing the initial binary search",
        "params": {
          "account": "- The address you're going to get the epoch value for"
        }
      },
      "owner()": {
        "details": "Returns the address of the current owner."
      },
      "renounceOwnership()": {
        "details": "Leaves the contract without owner. It will not be possible to call `onlyOwner` functions anymore. Can only be called by the current owner. NOTE: Renouncing ownership will leave the contract without an owner, thereby removing any functionality that is only available to the owner."
      },
      "transferOwnership(address)": {
        "details": "Transfers ownership of the contract to a new account (`newOwner`). Can only be called by the current owner."
      }
    },
    "stateVariables": {
      "feeDistributor": {
        "details": "The fee distributor contract"
      },
      "ve": {
        "details": "The voting escrow contract"
      }
    },
    "version": 1
  },
  "userdoc": {
    "kind": "user",
    "methods": {},
    "version": 1
  },
  "storageLayout": {
    "storage": [
      {
        "astId": 130,
        "contract": "contracts/FeeDistributorAgent.sol:FeeDistributorAgent",
        "label": "_initialized",
        "offset": 0,
        "slot": "0",
        "type": "t_uint8"
      },
      {
        "astId": 133,
        "contract": "contracts/FeeDistributorAgent.sol:FeeDistributorAgent",
        "label": "_initializing",
        "offset": 1,
        "slot": "0",
        "type": "t_bool"
      },
      {
        "astId": 549,
        "contract": "contracts/FeeDistributorAgent.sol:FeeDistributorAgent",
        "label": "__gap",
        "offset": 0,
        "slot": "1",
        "type": "t_array(t_uint256)50_storage"
      },
      {
        "astId": 10,
        "contract": "contracts/FeeDistributorAgent.sol:FeeDistributorAgent",
        "label": "_owner",
        "offset": 0,
        "slot": "51",
        "type": "t_address"
      },
      {
        "astId": 122,
        "contract": "contracts/FeeDistributorAgent.sol:FeeDistributorAgent",
        "label": "__gap",
        "offset": 0,
        "slot": "52",
        "type": "t_array(t_uint256)49_storage"
      },
      {
        "astId": 569,
        "contract": "contracts/FeeDistributorAgent.sol:FeeDistributorAgent",
        "label": "feeDistributor",
        "offset": 0,
        "slot": "101",
        "type": "t_contract(IFeeDistributor)1046"
      },
      {
        "astId": 573,
        "contract": "contracts/FeeDistributorAgent.sol:FeeDistributorAgent",
        "label": "ve",
        "offset": 0,
        "slot": "102",
        "type": "t_contract(IVotingEscrow)1091"
      }
    ],
    "types": {
      "t_address": {
        "encoding": "inplace",
        "label": "address",
        "numberOfBytes": "20"
      },
      "t_array(t_uint256)49_storage": {
        "base": "t_uint256",
        "encoding": "inplace",
        "label": "uint256[49]",
        "numberOfBytes": "1568"
      },
      "t_array(t_uint256)50_storage": {
        "base": "t_uint256",
        "encoding": "inplace",
        "label": "uint256[50]",
        "numberOfBytes": "1600"
      },
      "t_bool": {
        "encoding": "inplace",
        "label": "bool",
        "numberOfBytes": "1"
      },
      "t_contract(IFeeDistributor)1046": {
        "encoding": "inplace",
        "label": "contract IFeeDistributor",
        "numberOfBytes": "20"
      },
      "t_contract(IVotingEscrow)1091": {
        "encoding": "inplace",
        "label": "contract IVotingEscrow",
        "numberOfBytes": "20"
      },
      "t_uint256": {
        "encoding": "inplace",
        "label": "uint256",
        "numberOfBytes": "32"
      },
      "t_uint8": {
        "encoding": "inplace",
        "label": "uint8",
        "numberOfBytes": "1"
      }
    }
  }
}